:020000040000FA
:100000000128831603130030880010308500831206
:100010009F019F159F17C1309F003320B230B3005E
:100020003F2003194C2003110A30B3003F2003196D
:100030004F2003110530B3003F2003195220031154
:100040000330B3003F200319552003110230B300E1
:100050003F200319582003110030B3003F2003193B
:100060005B2003110D289F113B201F151F193628F7
:100070001E08B2000800A00BA20B3B280800B1012B
:10008000031003113308320203193114031CB11495
:1000900003183115031008000130880008000230F1
:1000A0008800080004308800080008308800080034
:0C00B00010308800080020308800080094
:0400BC0000340034D8
:00000001FF
