:020000040000FA
:100000000128831603130030880010308500831206
:100010009F019F159F17C1309F0045201930B300E5
:1000200051203118612031101630B30051203118A1
:10003000642031101330B300512031186720311083
:100040001030B300512031186A2031100D30B30048
:10005000512031186D2031100930B3005120311872
:10006000702031100630B300512031187320311048
:100070000330B30051203118762031100030B30026
:10008000512031185E2031100D289F114D201F1571
:100090001F1948281E08B2000800A00BA20B4D280B
:1000A0000800B1010310031133083202031931149F
:1000B000031CB11403183114031008000030880029
:1000C0000800013088000800023088000800043071
:1000D00088000800083088000800103088000800F8
:1000E00020308800080040308800080080308800F8
:0200F000080006
:0400F20000340034A2
:00000001FF
